{
  "contractName": "EndlessCrowdsale",
  "abi": [
    {
      "constant": true,
      "inputs": [],
      "name": "weiRaised",
      "outputs": [
        {
          "name": "",
          "type": "uint256"
        }
      ],
      "payable": false,
      "stateMutability": "view",
      "type": "function",
      "signature": "0x4042b66f"
    },
    {
      "constant": true,
      "inputs": [],
      "name": "wallet",
      "outputs": [
        {
          "name": "",
          "type": "address"
        }
      ],
      "payable": false,
      "stateMutability": "view",
      "type": "function",
      "signature": "0x521eb273"
    },
    {
      "constant": false,
      "inputs": [
        {
          "name": "beneficiary",
          "type": "address"
        }
      ],
      "name": "buyTokens",
      "outputs": [],
      "payable": true,
      "stateMutability": "payable",
      "type": "function",
      "signature": "0xec8ac4d8"
    },
    {
      "constant": true,
      "inputs": [],
      "name": "token",
      "outputs": [
        {
          "name": "",
          "type": "address"
        }
      ],
      "payable": false,
      "stateMutability": "view",
      "type": "function",
      "signature": "0xfc0c546a"
    },
    {
      "inputs": [
        {
          "name": "token",
          "type": "address"
        }
      ],
      "payable": false,
      "stateMutability": "nonpayable",
      "type": "constructor",
      "signature": "constructor"
    },
    {
      "payable": true,
      "stateMutability": "payable",
      "type": "fallback"
    },
    {
      "anonymous": false,
      "inputs": [
        {
          "indexed": true,
          "name": "purchaser",
          "type": "address"
        },
        {
          "indexed": true,
          "name": "beneficiary",
          "type": "address"
        },
        {
          "indexed": false,
          "name": "value",
          "type": "uint256"
        },
        {
          "indexed": false,
          "name": "amount",
          "type": "uint256"
        }
      ],
      "name": "TokensPurchased",
      "type": "event",
      "signature": "0x6faf93231a456e552dbc9961f58d9713ee4f2e69d15f1975b050ef0911053a7b"
    },
    {
      "constant": true,
      "inputs": [],
      "name": "rate",
      "outputs": [
        {
          "name": "",
          "type": "uint256"
        }
      ],
      "payable": false,
      "stateMutability": "view",
      "type": "function",
      "signature": "0x2c4e722e"
    },
    {
      "constant": true,
      "inputs": [],
      "name": "getCurrentRate",
      "outputs": [
        {
          "name": "",
          "type": "uint256"
        }
      ],
      "payable": false,
      "stateMutability": "view",
      "type": "function",
      "signature": "0xf7fb07b0"
    }
  ],
  "bytecode": "0x608060405234801561001057600080fd5b506040516020806109e98339810180604052602081101561003057600080fd5b810190808051906020019092919050505060643382600160008190555060008311151561005c57600080fd5b600073ffffffffffffffffffffffffffffffffffffffff168273ffffffffffffffffffffffffffffffffffffffff161415151561009857600080fd5b600073ffffffffffffffffffffffffffffffffffffffff168173ffffffffffffffffffffffffffffffffffffffff16141515156100d457600080fd5b8260038190555081600260006101000a81548173ffffffffffffffffffffffffffffffffffffffff021916908373ffffffffffffffffffffffffffffffffffffffff16021790555080600160006101000a81548173ffffffffffffffffffffffffffffffffffffffff021916908373ffffffffffffffffffffffffffffffffffffffff16021790555050505050610879806101706000396000f3fe608060405260043610610078576000357c0100000000000000000000000000000000000000000000000000000000900463ffffffff1680632c4e722e146100835780634042b66f146100ae578063521eb273146100d9578063ec8ac4d814610130578063f7fb07b014610174578063fc0c546a1461019f575b610081336101f6565b005b34801561008f57600080fd5b506100986102ec565b6040518082815260200191505060405180910390f35b3480156100ba57600080fd5b506100c36102f3565b6040518082815260200191505060405180910390f35b3480156100e557600080fd5b506100ee6102fd565b604051808273ffffffffffffffffffffffffffffffffffffffff1673ffffffffffffffffffffffffffffffffffffffff16815260200191505060405180910390f35b6101726004803603602081101561014657600080fd5b81019080803573ffffffffffffffffffffffffffffffffffffffff1690602001909291905050506101f6565b005b34801561018057600080fd5b50610189610327565b6040518082815260200191505060405180910390f35b3480156101ab57600080fd5b506101b46103e5565b604051808273ffffffffffffffffffffffffffffffffffffffff1673ffffffffffffffffffffffffffffffffffffffff16815260200191505060405180910390f35b60016000808282540192505081905550600080549050600034905061021b838261040f565b60006102268261045f565b905061023d826004546105a790919063ffffffff16565b60048190555061024d84826105c8565b8373ffffffffffffffffffffffffffffffffffffffff163373ffffffffffffffffffffffffffffffffffffffff167f6faf93231a456e552dbc9961f58d9713ee4f2e69d15f1975b050ef0911053a7b8484604051808381526020018281526020019250505060405180910390a36102c484836105d6565b6102cc6105da565b6102d68483610645565b5050600054811415156102e857600080fd5b5050565b6000806000fd5b6000600454905090565b6000600260009054906101000a900473ffffffffffffffffffffffffffffffffffffffff16905090565b60006103e060016103366103e5565b73ffffffffffffffffffffffffffffffffffffffff166318160ddd6040518163ffffffff167c010000000000000000000000000000000000000000000000000000000002815260040160206040518083038186803b15801561039757600080fd5b505afa1580156103ab573d6000803e3d6000fd5b505050506040513d60208110156103c157600080fd5b81019080805190602001909291905050506105a790919063ffffffff16565b905090565b6000600160009054906101000a900473ffffffffffffffffffffffffffffffffffffffff16905090565b600073ffffffffffffffffffffffffffffffffffffffff168273ffffffffffffffffffffffffffffffffffffffff161415151561044b57600080fd5b6000811415151561045b57600080fd5b5050565b60008061046a6103e5565b73ffffffffffffffffffffffffffffffffffffffff166318160ddd6040518163ffffffff167c010000000000000000000000000000000000000000000000000000000002815260040160206040518083038186803b1580156104cb57600080fd5b505afa1580156104df573d6000803e3d6000fd5b505050506040513d60208110156104f557600080fd5b8101908080519060200190929190505050905060006105446002610536600161052860028761064990919063ffffffff16565b6105a790919063ffffffff16565b61068790919063ffffffff16565b9050600061059a8261058c61058761056660028a61064990919063ffffffff16565b610579878861064990919063ffffffff16565b6105a790919063ffffffff16565b6106b1565b61073790919063ffffffff16565b9050809350505050919050565b60008082840190508381101515156105be57600080fd5b8091505092915050565b6105d28282610759565b5050565b5050565b600260009054906101000a900473ffffffffffffffffffffffffffffffffffffffff1673ffffffffffffffffffffffffffffffffffffffff166108fc349081150290604051600060405180830381858888f19350505050158015610642573d6000803e3d6000fd5b50565b5050565b60008083141561065c5760009050610681565b6000828402905082848281151561066f57fe5b0414151561067c57600080fd5b809150505b92915050565b6000808211151561069757600080fd5b600082848115156106a457fe5b0490508091505092915050565b6000806106db60026106cd6001866105a790919063ffffffff16565b61068790919063ffffffff16565b905060008390505b8082101561072d5781905061072660026107188461070a868961068790919063ffffffff16565b6105a790919063ffffffff16565b61068790919063ffffffff16565b91506106e3565b8092505050919050565b600082821115151561074857600080fd5b600082840390508091505092915050565b6107616103e5565b73ffffffffffffffffffffffffffffffffffffffff166340c10f1983836040518363ffffffff167c0100000000000000000000000000000000000000000000000000000000028152600401808373ffffffffffffffffffffffffffffffffffffffff1673ffffffffffffffffffffffffffffffffffffffff16815260200182815260200192505050602060405180830381600087803b15801561080357600080fd5b505af1158015610817573d6000803e3d6000fd5b505050506040513d602081101561082d57600080fd5b8101908080519060200190929190505050151561084957600080fd5b505056fea165627a7a723058205b71e95a18eaf7c81ac2b152ccc21e668782ac840c89145702b06c325985cbe30029",
  "source": "pragma solidity ^0.5.0;\n\nimport 'openzeppelin-solidity/contracts/crowdsale/emission/MintedCrowdsale.sol';\nimport 'openzeppelin-solidity/contracts/token/ERC20/IERC20.sol';\nimport 'openzeppelin-solidity/contracts/math/SafeMath.sol';\nimport 'openzeppelin-solidity/contracts/token/ERC20/SafeERC20.sol';\nimport './EndlessToken.sol';\n\ncontract EndlessCrowdsale is MintedCrowdsale {\n    using SafeMath for uint256;\n    using SafeERC20 for IERC20;\n\n    constructor (IERC20 token) public Crowdsale(100, msg.sender, token) {}\n\n    function rate() public view returns (uint256) {\n        revert();\n    }\n\n    function getCurrentRate() public view returns (uint256) {\n        return token().totalSupply().add(1);\n    }\n\n    function _getTokenAmount(uint256 weiAmount)\n        internal\n        view\n        returns (uint256)\n    {\n        uint256 start = token().totalSupply();\n        uint256 b = start.mul(2).add(1).div(2);\n\n        uint256 root = sqrt(b.mul(b).add(weiAmount.mul(2))).sub(b);\n\n        return root;\n    }\n\n    function sqrt(uint256 x) private pure returns (uint256) {\n        uint256 z = x.add(1).div(2);\n        uint y = x;\n\n        while (z < y) {\n            y = z;\n            z = x.div(z).add(z).div(2);\n        }\n\n        return y;\n    }\n}\n",
  "sourcePath": "/home/opz/Projects/endlessico/contracts/EndlessCrowdsale.sol",
  "compiler": {
    "name": "solc",
    "version": "0.5.0+commit.1d4f565a.Emscripten.clang"
  },
  "schemaVersion": "3.0.1",
  "updatedAt": "2019-02-12T04:26:06.359Z",
  "devdoc": {
    "methods": {
      "buyTokens(address)": {
        "details": "low level token purchase ***DO NOT OVERRIDE*** This function has a non-reentrancy guard, so it shouldn't be called by another `nonReentrant` function.",
        "params": {
          "beneficiary": "Recipient of the token purchase"
        }
      },
      "token()": {
        "return": "the token being sold."
      },
      "wallet()": {
        "return": "the address where funds are collected."
      },
      "weiRaised()": {
        "return": "the amount of wei raised."
      }
    }
  },
  "userdoc": {
    "methods": {}
  }
}