{
  "contractName": "EndlessCrowdsale",
  "abi": [
    {
      "constant": true,
      "inputs": [],
      "name": "weiRaised",
      "outputs": [
        {
          "name": "",
          "type": "uint256"
        }
      ],
      "payable": false,
      "stateMutability": "view",
      "type": "function",
      "signature": "0x4042b66f"
    },
    {
      "constant": true,
      "inputs": [],
      "name": "wallet",
      "outputs": [
        {
          "name": "",
          "type": "address"
        }
      ],
      "payable": false,
      "stateMutability": "view",
      "type": "function",
      "signature": "0x521eb273"
    },
    {
      "constant": false,
      "inputs": [
        {
          "name": "beneficiary",
          "type": "address"
        }
      ],
      "name": "buyTokens",
      "outputs": [],
      "payable": true,
      "stateMutability": "payable",
      "type": "function",
      "signature": "0xec8ac4d8"
    },
    {
      "constant": true,
      "inputs": [],
      "name": "token",
      "outputs": [
        {
          "name": "",
          "type": "address"
        }
      ],
      "payable": false,
      "stateMutability": "view",
      "type": "function",
      "signature": "0xfc0c546a"
    },
    {
      "inputs": [
        {
          "name": "token",
          "type": "address"
        }
      ],
      "payable": false,
      "stateMutability": "nonpayable",
      "type": "constructor",
      "signature": "constructor"
    },
    {
      "payable": true,
      "stateMutability": "payable",
      "type": "fallback"
    },
    {
      "anonymous": false,
      "inputs": [
        {
          "indexed": true,
          "name": "purchaser",
          "type": "address"
        },
        {
          "indexed": true,
          "name": "beneficiary",
          "type": "address"
        },
        {
          "indexed": false,
          "name": "value",
          "type": "uint256"
        },
        {
          "indexed": false,
          "name": "amount",
          "type": "uint256"
        }
      ],
      "name": "TokensPurchased",
      "type": "event",
      "signature": "0x6faf93231a456e552dbc9961f58d9713ee4f2e69d15f1975b050ef0911053a7b"
    },
    {
      "constant": true,
      "inputs": [],
      "name": "rate",
      "outputs": [
        {
          "name": "",
          "type": "uint256"
        }
      ],
      "payable": false,
      "stateMutability": "view",
      "type": "function",
      "signature": "0x2c4e722e"
    },
    {
      "constant": true,
      "inputs": [],
      "name": "getCurrentRate",
      "outputs": [
        {
          "name": "",
          "type": "uint256"
        }
      ],
      "payable": false,
      "stateMutability": "view",
      "type": "function",
      "signature": "0xf7fb07b0"
    },
    {
      "constant": true,
      "inputs": [
        {
          "name": "weiAmount",
          "type": "uint256"
        }
      ],
      "name": "getTokenAmount",
      "outputs": [
        {
          "name": "",
          "type": "uint256"
        }
      ],
      "payable": false,
      "stateMutability": "view",
      "type": "function",
      "signature": "0xc2507ac1"
    }
  ],
  "bytecode": "0x608060405234801561001057600080fd5b50604051602080610b178339810180604052602081101561003057600080fd5b810190808051906020019092919050505060643382600160008190555060008311151561005c57600080fd5b600073ffffffffffffffffffffffffffffffffffffffff168273ffffffffffffffffffffffffffffffffffffffff161415151561009857600080fd5b600073ffffffffffffffffffffffffffffffffffffffff168173ffffffffffffffffffffffffffffffffffffffff16141515156100d457600080fd5b8260038190555081600260006101000a81548173ffffffffffffffffffffffffffffffffffffffff021916908373ffffffffffffffffffffffffffffffffffffffff16021790555080600160006101000a81548173ffffffffffffffffffffffffffffffffffffffff021916908373ffffffffffffffffffffffffffffffffffffffff160217905550505050506109a7806101706000396000f3fe608060405260043610610083576000357c0100000000000000000000000000000000000000000000000000000000900463ffffffff1680632c4e722e1461008e5780634042b66f146100b9578063521eb273146100e4578063c2507ac11461013b578063ec8ac4d81461018a578063f7fb07b0146101ce578063fc0c546a146101f9575b61008c33610250565b005b34801561009a57600080fd5b506100a3610346565b6040518082815260200191505060405180910390f35b3480156100c557600080fd5b506100ce61034d565b6040518082815260200191505060405180910390f35b3480156100f057600080fd5b506100f9610357565b604051808273ffffffffffffffffffffffffffffffffffffffff1673ffffffffffffffffffffffffffffffffffffffff16815260200191505060405180910390f35b34801561014757600080fd5b506101746004803603602081101561015e57600080fd5b8101908080359060200190929190505050610381565b6040518082815260200191505060405180910390f35b6101cc600480360360208110156101a057600080fd5b81019080803573ffffffffffffffffffffffffffffffffffffffff169060200190929190505050610250565b005b3480156101da57600080fd5b506101e3610393565b6040518082815260200191505060405180910390f35b34801561020557600080fd5b5061020e610451565b604051808273ffffffffffffffffffffffffffffffffffffffff1673ffffffffffffffffffffffffffffffffffffffff16815260200191505060405180910390f35b600160008082825401925050819055506000805490506000349050610275838261047b565b6000610280826104cb565b9050610297826004546104fa90919063ffffffff16565b6004819055506102a7848261051b565b8373ffffffffffffffffffffffffffffffffffffffff163373ffffffffffffffffffffffffffffffffffffffff167f6faf93231a456e552dbc9961f58d9713ee4f2e69d15f1975b050ef0911053a7b8484604051808381526020018281526020019250505060405180910390a361031e8483610529565b61032661052d565b6103308483610598565b50506000548114151561034257600080fd5b5050565b6000806000fd5b6000600454905090565b6000600260009054906101000a900473ffffffffffffffffffffffffffffffffffffffff16905090565b600061038c826104cb565b9050919050565b600061044c60016103a2610451565b73ffffffffffffffffffffffffffffffffffffffff166318160ddd6040518163ffffffff167c010000000000000000000000000000000000000000000000000000000002815260040160206040518083038186803b15801561040357600080fd5b505afa158015610417573d6000803e3d6000fd5b505050506040513d602081101561042d57600080fd5b81019080805190602001909291905050506104fa90919063ffffffff16565b905090565b6000600160009054906101000a900473ffffffffffffffffffffffffffffffffffffffff16905090565b600073ffffffffffffffffffffffffffffffffffffffff168273ffffffffffffffffffffffffffffffffffffffff16141515156104b757600080fd5b600081141515156104c757600080fd5b5050565b600080670de0b6b3a764000090506000612710905060006104ed85838561059c565b9050809350505050919050565b600080828401905083811015151561051157600080fd5b8091505092915050565b61052582826105f9565b5050565b5050565b600260009054906101000a900473ffffffffffffffffffffffffffffffffffffffff1673ffffffffffffffffffffffffffffffffffffffff166108fc349081150290604051600060405180830381858888f19350505050158015610595573d6000803e3d6000fd5b50565b5050565b6000806105a984846106ed565b905060006105b986838787610803565b905060006105ea866105dc856105ce8661086b565b6108f190919063ffffffff16565b61091390919063ffffffff16565b90508093505050509392505050565b610601610451565b73ffffffffffffffffffffffffffffffffffffffff166340c10f1983836040518363ffffffff167c0100000000000000000000000000000000000000000000000000000000028152600401808373ffffffffffffffffffffffffffffffffffffffff1673ffffffffffffffffffffffffffffffffffffffff16815260200182815260200192505050602060405180830381600087803b1580156106a357600080fd5b505af11580156106b7573d6000803e3d6000fd5b505050506040513d60208110156106cd57600080fd5b810190808051906020019092919050505015156106e957600080fd5b5050565b6000806107a6836106fc610451565b73ffffffffffffffffffffffffffffffffffffffff166318160ddd6040518163ffffffff167c010000000000000000000000000000000000000000000000000000000002815260040160206040518083038186803b15801561075d57600080fd5b505afa158015610771573d6000803e3d6000fd5b505050506040513d602081101561078757600080fd5b810190808051906020019092919050505061091390919063ffffffff16565b905060006107f6856107e860026107da60016107cc60028961091390919063ffffffff16565b6104fa90919063ffffffff16565b61095190919063ffffffff16565b61095190919063ffffffff16565b9050809250505092915050565b6000610861610840846108326002610824878b61091390919063ffffffff16565b61091390919063ffffffff16565b61095190919063ffffffff16565b610853868761091390919063ffffffff16565b6104fa90919063ffffffff16565b9050949350505050565b60008061089560026108876001866104fa90919063ffffffff16565b61095190919063ffffffff16565b905060008390505b808210156108e7578190506108e060026108d2846108c4868961095190919063ffffffff16565b6104fa90919063ffffffff16565b61095190919063ffffffff16565b915061089d565b8092505050919050565b600082821115151561090257600080fd5b600082840390508091505092915050565b600080831415610926576000905061094b565b6000828402905082848281151561093957fe5b0414151561094657600080fd5b809150505b92915050565b6000808211151561096157600080fd5b6000828481151561096e57fe5b049050809150509291505056fea165627a7a723058202e989ebf4d7cd6aed6ed04a33f710f8bc337ab2f62e13881f58b76edb2b5ad0d0029",
  "source": "pragma solidity ^0.5.0;\n\nimport 'openzeppelin-solidity/contracts/crowdsale/emission/MintedCrowdsale.sol';\nimport 'openzeppelin-solidity/contracts/token/ERC20/IERC20.sol';\nimport 'openzeppelin-solidity/contracts/math/SafeMath.sol';\nimport 'openzeppelin-solidity/contracts/token/ERC20/SafeERC20.sol';\n\ncontract EndlessCrowdsale is MintedCrowdsale {\n    using SafeMath for uint256;\n    using SafeERC20 for IERC20;\n\n    constructor (IERC20 token) public Crowdsale(100, msg.sender, token) {}\n\n    function rate() public view returns (uint256) {\n        revert();\n    }\n\n    function getCurrentRate() public view returns (uint256) {\n        return token().totalSupply().add(1);\n    }\n\n    function getTokenAmount(uint256 weiAmount)\n        external\n        view\n        returns (uint256)\n    {\n        return _getTokenAmount(weiAmount);\n    }\n\n    function _getTokenAmount(uint256 weiAmount)\n        internal\n        view\n        returns (uint256)\n    {\n        uint256 decimals = 1000000000000000000;\n        uint256 scale = 10000;\n\n        uint256 tokenAmount = getRoot(weiAmount, scale, decimals);\n\n        return tokenAmount;\n    }\n\n    function getLinearCoefficient(uint256 scale, uint256 decimals)\n        private\n        view\n        returns (uint256)\n    {\n        uint256 start = token().totalSupply().mul(decimals);\n        uint256 b = start.mul(2).add(1).div(2).div(scale);\n\n        return b;\n    }\n\n    function getRoot(uint256 weiAmount, uint256 scale, uint256 decimals)\n        private\n        view\n        returns (uint256)\n    {\n        uint256 b = getLinearCoefficient(scale, decimals);\n        uint256 discriminant = getDiscriminant(weiAmount, b, scale, decimals);\n        uint256 root = sqrt(discriminant).sub(b).mul(scale);\n\n        return root;\n    }\n\n    function getDiscriminant(\n        uint256 weiAmount,\n        uint256 b,\n        uint256 scale,\n        uint256 decimals\n    )\n        private\n        pure\n        returns (uint256)\n    {\n        return b.mul(b).add(weiAmount.mul(decimals).mul(2).div(scale));\n    }\n\n    function sqrt(uint256 x) private pure returns (uint256) {\n        uint256 z = x.add(1).div(2);\n        uint y = x;\n\n        while (z < y) {\n            y = z;\n            z = x.div(z).add(z).div(2);\n        }\n\n        return y;\n    }\n}\n",
  "sourcePath": "/home/opz/Projects/endlessico/contracts/EndlessCrowdsale.sol",
  "compiler": {
    "name": "solc",
    "version": "0.5.0+commit.1d4f565a.Emscripten.clang"
  },
  "schemaVersion": "3.0.1",
  "updatedAt": "2019-02-19T00:21:21.798Z",
  "devdoc": {
    "methods": {
      "buyTokens(address)": {
        "details": "low level token purchase ***DO NOT OVERRIDE*** This function has a non-reentrancy guard, so it shouldn't be called by another `nonReentrant` function.",
        "params": {
          "beneficiary": "Recipient of the token purchase"
        }
      },
      "token()": {
        "return": "the token being sold."
      },
      "wallet()": {
        "return": "the address where funds are collected."
      },
      "weiRaised()": {
        "return": "the amount of wei raised."
      }
    }
  },
  "userdoc": {
    "methods": {}
  }
}