{
  "contractName": "EndlessCrowdsale",
  "abi": [
    {
      "constant": true,
      "inputs": [],
      "name": "rateDecimals",
      "outputs": [
        {
          "name": "",
          "type": "uint256"
        }
      ],
      "payable": false,
      "stateMutability": "view",
      "type": "function",
      "signature": "0x1a3480b5"
    },
    {
      "constant": true,
      "inputs": [],
      "name": "rate",
      "outputs": [
        {
          "name": "",
          "type": "uint256"
        }
      ],
      "payable": false,
      "stateMutability": "view",
      "type": "function",
      "signature": "0x2c4e722e"
    },
    {
      "constant": true,
      "inputs": [],
      "name": "weiRaised",
      "outputs": [
        {
          "name": "",
          "type": "uint256"
        }
      ],
      "payable": false,
      "stateMutability": "view",
      "type": "function",
      "signature": "0x4042b66f"
    },
    {
      "constant": true,
      "inputs": [],
      "name": "wallet",
      "outputs": [
        {
          "name": "",
          "type": "address"
        }
      ],
      "payable": false,
      "stateMutability": "view",
      "type": "function",
      "signature": "0x521eb273"
    },
    {
      "constant": true,
      "inputs": [],
      "name": "minContribution",
      "outputs": [
        {
          "name": "",
          "type": "uint256"
        }
      ],
      "payable": false,
      "stateMutability": "view",
      "type": "function",
      "signature": "0xaaffadf3"
    },
    {
      "constant": false,
      "inputs": [
        {
          "name": "beneficiary",
          "type": "address"
        }
      ],
      "name": "buyTokens",
      "outputs": [],
      "payable": true,
      "stateMutability": "payable",
      "type": "function",
      "signature": "0xec8ac4d8"
    },
    {
      "constant": true,
      "inputs": [],
      "name": "token",
      "outputs": [
        {
          "name": "",
          "type": "address"
        }
      ],
      "payable": false,
      "stateMutability": "view",
      "type": "function",
      "signature": "0xfc0c546a"
    },
    {
      "inputs": [
        {
          "name": "token",
          "type": "address"
        }
      ],
      "payable": false,
      "stateMutability": "nonpayable",
      "type": "constructor",
      "signature": "constructor"
    },
    {
      "payable": true,
      "stateMutability": "payable",
      "type": "fallback"
    },
    {
      "anonymous": false,
      "inputs": [
        {
          "indexed": true,
          "name": "purchaser",
          "type": "address"
        },
        {
          "indexed": true,
          "name": "beneficiary",
          "type": "address"
        },
        {
          "indexed": false,
          "name": "value",
          "type": "uint256"
        },
        {
          "indexed": false,
          "name": "amount",
          "type": "uint256"
        }
      ],
      "name": "TokensPurchased",
      "type": "event",
      "signature": "0x6faf93231a456e552dbc9961f58d9713ee4f2e69d15f1975b050ef0911053a7b"
    },
    {
      "constant": true,
      "inputs": [
        {
          "name": "weiAmount",
          "type": "uint256"
        }
      ],
      "name": "getTokenAmount",
      "outputs": [
        {
          "name": "",
          "type": "uint256"
        }
      ],
      "payable": false,
      "stateMutability": "view",
      "type": "function",
      "signature": "0xc2507ac1"
    }
  ],
  "bytecode": "0x608060405234801561001057600080fd5b50604051602080610bcb8339810180604052602081101561003057600080fd5b810190808051906020019092919050505069d3c21bcecceda10000003382600160008190555060008311151561006557600080fd5b600073ffffffffffffffffffffffffffffffffffffffff168273ffffffffffffffffffffffffffffffffffffffff16141515156100a157600080fd5b600073ffffffffffffffffffffffffffffffffffffffff168173ffffffffffffffffffffffffffffffffffffffff16141515156100dd57600080fd5b8260038190555081600260006101000a81548173ffffffffffffffffffffffffffffffffffffffff021916908373ffffffffffffffffffffffffffffffffffffffff16021790555080600160006101000a81548173ffffffffffffffffffffffffffffffffffffffff021916908373ffffffffffffffffffffffffffffffffffffffff16021790555050505050610a52806101796000396000f3fe60806040526004361061008e576000357c0100000000000000000000000000000000000000000000000000000000900463ffffffff1680631a3480b5146100995780632c4e722e146100c45780634042b66f146100ef578063521eb2731461011a578063aaffadf314610171578063c2507ac11461019c578063ec8ac4d8146101eb578063fc0c546a1461022f575b61009733610286565b005b3480156100a557600080fd5b506100ae61037c565b6040518082815260200191505060405180910390f35b3480156100d057600080fd5b506100d9610381565b6040518082815260200191505060405180910390f35b3480156100fb57600080fd5b5061010461038b565b6040518082815260200191505060405180910390f35b34801561012657600080fd5b5061012f610395565b604051808273ffffffffffffffffffffffffffffffffffffffff1673ffffffffffffffffffffffffffffffffffffffff16815260200191505060405180910390f35b34801561017d57600080fd5b506101866103bf565b6040518082815260200191505060405180910390f35b3480156101a857600080fd5b506101d5600480360360208110156101bf57600080fd5b81019080803590602001909291905050506103ca565b6040518082815260200191505060405180910390f35b61022d6004803603602081101561020157600080fd5b81019080803573ffffffffffffffffffffffffffffffffffffffff169060200190929190505050610286565b005b34801561023b57600080fd5b506102446103dc565b604051808273ffffffffffffffffffffffffffffffffffffffff1673ffffffffffffffffffffffffffffffffffffffff16815260200191505060405180910390f35b6001600080828254019250508190555060008054905060003490506102ab8382610406565b60006102b6826104b9565b90506102cd8260045461050090919063ffffffff16565b6004819055506102dd8482610521565b8373ffffffffffffffffffffffffffffffffffffffff163373ffffffffffffffffffffffffffffffffffffffff167f6faf93231a456e552dbc9961f58d9713ee4f2e69d15f1975b050ef0911053a7b8484604051808381526020018281526020019250505060405180910390a3610354848361052f565b61035c610533565b610366848361059e565b50506000548114151561037857600080fd5b5050565b601281565b6000600354905090565b6000600454905090565b6000600260009054906101000a900473ffffffffffffffffffffffffffffffffffffffff16905090565b66038d7ea4c6800081565b60006103d5826104b9565b9050919050565b6000600160009054906101000a900473ffffffffffffffffffffffffffffffffffffffff16905090565b61041082826105a2565b66038d7ea4c6800081101515156104b5576040517f08c379a00000000000000000000000000000000000000000000000000000000081526004018080602001828103825260278152602001807f436f6e747269627574696f6e206d757374206265206174206c6561737420302e81526020017f303031204554480000000000000000000000000000000000000000000000000081525060400191505060405180910390fd5b5050565b6000806104d760026104c9610381565b6105f290919063ffffffff16565b905060006104e482610630565b905060006104f383838761073f565b9050809350505050919050565b600080828401905083811015151561051757600080fd5b8091505092915050565b61052b82826107d4565b5050565b5050565b600260009054906101000a900473ffffffffffffffffffffffffffffffffffffffff1673ffffffffffffffffffffffffffffffffffffffff166108fc349081150290604051600060405180830381858888f1935050505015801561059b573d6000803e3d6000fd5b50565b5050565b600073ffffffffffffffffffffffffffffffffffffffff168273ffffffffffffffffffffffffffffffffffffffff16141515156105de57600080fd5b600081141515156105ee57600080fd5b5050565b600080831415610605576000905061062a565b6000828402905082848281151561061857fe5b0414151561062557600080fd5b809150505b92915050565b6000806106ed6012600a0a6106436103dc565b73ffffffffffffffffffffffffffffffffffffffff166318160ddd6040518163ffffffff167c010000000000000000000000000000000000000000000000000000000002815260040160206040518083038186803b1580156106a457600080fd5b505afa1580156106b8573d6000803e3d6000fd5b505050506040513d60208110156106ce57600080fd5b81019080805190602001909291905050506105f290919063ffffffff16565b905060006012600a0a9050600061073285610724846107166002886105f290919063ffffffff16565b61050090919063ffffffff16565b6108c890919063ffffffff16565b9050809350505050919050565b60008061074d8585856108f2565b905060006107686012600a0a836105f290919063ffffffff16565b905060006107ac8761079e60026107908a6107828861097e565b610a0490919063ffffffff16565b6108c890919063ffffffff16565b6105f290919063ffffffff16565b90506107c56012600a0a826108c890919063ffffffff16565b90508093505050509392505050565b6107dc6103dc565b73ffffffffffffffffffffffffffffffffffffffff166340c10f1983836040518363ffffffff167c0100000000000000000000000000000000000000000000000000000000028152600401808373ffffffffffffffffffffffffffffffffffffffff1673ffffffffffffffffffffffffffffffffffffffff16815260200182815260200192505050602060405180830381600087803b15801561087e57600080fd5b505af1158015610892573d6000803e3d6000fd5b505050506040513d60208110156108a857600080fd5b810190808051906020019092919050505015156108c457600080fd5b5050565b600080821115156108d857600080fd5b600082848115156108e557fe5b0490508091505092915050565b60008061091e6012600a0a61091086876105f290919063ffffffff16565b6108c890919063ffffffff16565b905060006109396012600a0a856105f290919063ffffffff16565b9050610973610964876109566004856105f290919063ffffffff16565b6108c890919063ffffffff16565b8361050090919063ffffffff16565b925050509392505050565b6000806109a8600261099a60018661050090919063ffffffff16565b6108c890919063ffffffff16565b905060008390505b808210156109fa578190506109f360026109e5846109d786896108c890919063ffffffff16565b61050090919063ffffffff16565b6108c890919063ffffffff16565b91506109b0565b8092505050919050565b6000828211151515610a1557600080fd5b60008284039050809150509291505056fea165627a7a72305820c56c740a09b543e4e78c1f02008cfa091dd86f7df7b57e1d1647d854dbc900b20029",
  "source": "pragma solidity ^0.5.0;\n\nimport 'openzeppelin-solidity/contracts/crowdsale/emission/MintedCrowdsale.sol';\nimport 'openzeppelin-solidity/contracts/token/ERC20/IERC20.sol';\nimport 'openzeppelin-solidity/contracts/math/SafeMath.sol';\nimport 'openzeppelin-solidity/contracts/token/ERC20/SafeERC20.sol';\n\ncontract EndlessCrowdsale is MintedCrowdsale {\n    using SafeMath for uint256;\n    using SafeERC20 for IERC20;\n\n    uint256 constant public minContribution = 1000000000000000;\n    uint256 constant public rateDecimals = 18;\n    uint256 constant private rateDecimalsMultiply = 10 ** rateDecimals;\n\n    constructor (IERC20 token)\n        public\n        Crowdsale(1000000000000000000000000, msg.sender, token)\n    {}\n\n    function getTokenAmount(uint256 weiAmount)\n        external\n        view\n        returns (uint256)\n    {\n        return _getTokenAmount(weiAmount);\n    }\n\n    function _preValidatePurchase(address beneficiary, uint256 weiAmount)\n        internal\n        view\n    {\n        super._preValidatePurchase(beneficiary, weiAmount);\n        require(\n            weiAmount >= minContribution,\n            'Contribution must be at least 0.001 ETH'\n        );\n    }\n\n    function _getTokenAmount(uint256 weiAmount)\n        internal\n        view\n        returns (uint256)\n    {\n        uint256 aInverse = rate().mul(2);\n        uint256 b = getLinearCoefficient(aInverse);\n        uint256 tokenAmount = getRoot(aInverse, b, weiAmount);\n\n        return tokenAmount;\n    }\n\n    function getLinearCoefficient(uint256 aInverse)\n        private\n        view\n        returns (uint256)\n    {\n        // Adjust for decimal places\n        uint256 start = token().totalSupply().mul(rateDecimalsMultiply);\n        uint256 oneDecimals = rateDecimalsMultiply;\n\n        uint256 b = start.mul(2).add(oneDecimals).div(aInverse);\n\n        return b;\n    }\n\n    function getRoot(uint256 aInverse, uint256 b, uint256 cNegative)\n        private\n        pure\n        returns (uint256)\n    {\n        uint256 discriminant = getDiscriminant(aInverse, b, cNegative);\n\n        // Adjust for decimal places\n        uint256 discriminantDecimals = discriminant.mul(rateDecimalsMultiply);\n\n        uint256 root = sqrt(discriminantDecimals).sub(b).div(2).mul(aInverse);\n\n        // Adjust for decimal places\n        root = root.div(rateDecimalsMultiply);\n\n        return root;\n    }\n\n    function getDiscriminant(uint256 aInverse, uint256 b, uint256 cNegative)\n        private\n        pure\n        returns (uint256)\n    {\n        // Adjust for decimal places\n        uint256 bSquaredDecimals = b.mul(b).div(rateDecimalsMultiply);\n        uint256 cNegativeDecimals = cNegative.mul(rateDecimalsMultiply);\n\n        return bSquaredDecimals.add(cNegativeDecimals.mul(4).div(aInverse));\n    }\n\n    function sqrt(uint256 x) private pure returns (uint256) {\n        uint256 z = x.add(1).div(2);\n        uint y = x;\n\n        while (z < y) {\n            y = z;\n            z = x.div(z).add(z).div(2);\n        }\n\n        return y;\n    }\n}\n",
  "sourcePath": "/home/opz/Projects/endlessico/contracts/EndlessCrowdsale.sol",
  "compiler": {
    "name": "solc",
    "version": "0.5.0+commit.1d4f565a.Emscripten.clang"
  },
  "schemaVersion": "3.0.1",
  "updatedAt": "2019-02-28T00:48:43.169Z",
  "devdoc": {
    "methods": {
      "buyTokens(address)": {
        "details": "low level token purchase ***DO NOT OVERRIDE*** This function has a non-reentrancy guard, so it shouldn't be called by another `nonReentrant` function.",
        "params": {
          "beneficiary": "Recipient of the token purchase"
        }
      },
      "rate()": {
        "return": "the number of token units a buyer gets per wei."
      },
      "token()": {
        "return": "the token being sold."
      },
      "wallet()": {
        "return": "the address where funds are collected."
      },
      "weiRaised()": {
        "return": "the amount of wei raised."
      }
    }
  },
  "userdoc": {
    "methods": {}
  }
}